:103800005CC000008FC0000073C0000071C00000E9
:103810006FC000006DC000006BC0000069C00000F8
:1038200067C0000065C0000063C0000061C0000008
:103830005FC000005DC000005BC0000059C0000018
:1038400057C0000055C0000053C0000051C0000028
:103850004FC000004DC000004BC0000049C0000038
:1038600047C0000045C00000040309041C037700A2
:10387000770077002E00660069007300630068001F
:103880006C002E00640065000E03550053004200DA
:1038900061007300700012011001FF000008C016E3
:1038A000DC05020101020001090212000101008091
:1038B0003209040000000000000011241FBECFEFF9
:1038C000D4E0DEBFCDBF11E0A0E0B1E0EEEAFFE35F
:1038D00002C005900D92A630B107D9F711E0A6E01D
:1038E000B1E001C01D92AC33B107E1F733D15DC344
:1038F00087CFA82FB92F80E090E041E050EA609593
:1039000030E009C02D9182279795879510F0842784
:103910009527305EC8F36F5FA8F30895EADF8D93B3
:103920009D930895CF93CFB7CF93DF93C3954C9BCF
:10393000E9F74C9B11C04C9B0FC04C9B0DC04C9B9E
:103940000BC04C9B09C04C9B07C04C9B05C04C9BBB
:1039500003C04C9B01C081C06F93C0911F01DD2744
:10396000CA5DDE4F2F9320E400C065E04C9B03C08E
:103970002F916F91DECF0F931F934F9345E55F9388
:1039800055E53F933BE014E009B104712EC06A9500
:10399000C9F03150D8F109B1047101130BC008947A
:1039A0002795299320E4555500F46A9569F701E0BD
:1039B00069B10BC0102F66E02695299320E4555578
:1039C00018F3E2CF0FEF69B10000162F455500F054
:1039D000404066E014710030E2F221F0000009B1CD
:1039E000047103C009B10471A9F0011309C008945E
:1039F000279568F200C06A95A9F700E069B1E5CFA4
:103A0000102F66E0269528F20000ECCF11E01CBBD9
:103A1000002717C03B503195C31BD04011E01CBBA1
:103A20000881033CF9F00B34E9F020911D01198164
:103A3000110F1213EDCF093651F10D3211F0013E85
:103A400039F7009324013F915F914F911F910F919E
:103A50002F916F91CCB3C0FD69CFDF91CF91CFBFD4
:103A6000CF91189520912401222369F3109122010E
:103A7000112329F534302AF13093220120931E01BD
:103A800010911F013BE0311B30931F011AC00091C0
:103A900022010130A4F40AE53091000134FD12C086
:103AA00000930001C2E1D1E011C0052710E000C081
:103AB0000BB919C0052710E0221F00C01DC04AE540
:103AC00002C032ED432FC4E1D0E032E01AB11461FC
:103AD0005C9A0BB11AB954E120E869E420FF05278C
:103AE0000BB92795179500C000001C3FF0F66695AE
:103AF000A8F7A1F720FF05270BB927951795000018
:103B00001C3FC0F629913A9541F70B7E1091230195
:103B1000110F0BB9C651D04011F010931D0111E0E7
:103B20001CBB00611AB11B7E402F4B7E55E05A959D
:103B3000F1F70BB91AB94BB986CF5798F8941DBA5B
:103B40001092690081E085BF15BEE0911001F091EF
:103B50001101099588E10FB6F894809360001092E6
:103B600060000FBE409A8BB180788BB9579A04B62B
:103B700000FE04C214BE81E085BF82E085BF3C9A8E
:103B8000449A1092B00087E08093B1003099F5C15B
:103B900080916900826080936900E89A549A20E0DD
:103BA00005C0A89588E893E10197F1F72150C9F77E
:103BB0005498789490912201935097FD5CC1809124
:103BC0001F010CE010E0081B11090A5D1E4F8091D7
:103BD0001E018D3209F0D8C0983009F04AC183EC3B
:103BE000809312018AE58093000110920A01D801A6
:103BF0003C91832F807611962C911197882309F49C
:103C00004CC086E091E09093210180932001233005
:103C1000F9F413969C91139714968C91149712961D
:103C20002C91203339F48370E82FF0E0EE5FFE4FE3
:103C300080810AC0203A11F4A2D106C0203C19F4B8
:103C4000F8016581A4D180E08093090194E08EC0E1
:103C50002530F9F0822F84508630E8F4D80112968E
:103C60008D919C91139790930C0180930B012930B7
:103C700091F016969C91169790930D0115968C9144
:103C8000827080930E0120930F0137FD6AC02FEFE1
:103C900069C091E06BC090E069C0F8018281109228
:103CA0001B01222331F410921C012BE131E092E040
:103CB00053C0253019F4809323014BC02630C9F539
:103CC000D80113968C91813019F486E998E304C0E9
:103CD000823041F488EA98E3909321018093200197
:103CE00092E123C0833001F5F8018281882341F4F9
:103CF00088E698E3909321018093200194E015C019
:103D0000813041F48CE698E3909321018093200167
:103D10009CE10BC0823041F488E898E39093210144
:103D2000809320019EE001C090E080E480930A012E
:103D30001DC0283019F425E231E009C0293019F4FA
:103D40008093250106C02A3021F42BE131E091E077
:103D500003C02BE131E090E030932101209320015A
:103D600005C0292F80E880930A010BC0D80117965F
:103D70008C911797882321F416962C91291708F017
:103D8000292F2093010175C080910A0187FF71C01E
:103D900080910D01F92E891708F4F82E8F19809360
:103DA0000D01EE24882311F4EE24E39480910F0199
:103DB000873010F0E80114C050910E01E0910B0122
:103DC000F0910C0140E04AC080910B0190910C01F0
:103DD000019690930C0180930B0101976991D7D0C4
:103DE000FE01E01BEF1580F340C0CF018F7790708C
:103DF000892B49F4F89483E080935700E8957894F0
:103E000007B600FCFDCF4E5FF894D8018D919D91CF
:103E10008D0121E00C0120935700E895112478943E
:103E20009F012E5F3F4FC9018F779070892B31F032
:103E3000EE2099F04F1588F0552379F0F89485E03D
:103E400080935700E895789407B600FCFDCFF8946E
:103E500081E180935700E8957894F9014F1508F4B3
:103E6000C4CFF0930C01E0930B01EE2011F01092FF
:103E70000101109222018091000184FF71C08091A4
:103E800001018F3F09F46CC0182F893008F018E049
:103E9000811B809301018091120198E8892780930A
:103EA0001201112309F44AC080910A0187FF2AC038
:103EB00080910D01811708F4182F811B80930D014B
:103EC00000910F01C3E1D1E015C0E0910B01F09129
:103ED0000C01073018F0CF0152D001C084918883C3
:103EE000219680910B0190910C01019690930C0109
:103EF00080930B01812F90E08D5E9E4FC817D907EC
:103F000021F71AC0E0912001F091210186FF09C03C
:103F1000912FA3E1B1E084918D9331969150D9F71F
:103F200007C0912FA3E1B1E081918D939150E1F70A
:103F3000F0932101E0932001193060F483E191E0D6
:103F4000612FECDC612F6C5F6C3041F08FEF809360
:103F5000010104C08FEF809301016EE160930001C5
:103F600094E189B1847131F49150D9F71092230111
:103F700010921D0187B3309B1DCE4498DEDDF99968
:103F8000FECF92BD81BDF89A992780B50895262F5E
:103F9000F999FECF1FBA92BD81BD20BD0FB6F8942E
:0E3FA000FA9AF99A0FBE01960895F894FFCF91
:063FAE005AFF1E940600FC
:0400000300003800C1
:00000001FF
